:1000000019C02BC02AC029C028C027C026C025C0BF
:1000100024C023C022C021C020C01FC01EC01DC0DC
:100020001CC01BC01AC019C018C017C016C015C00C
:1000300014C013C011241FBECFEFD4E0DEBFCDBF6C
:1000400011E0A0E0B1E0E2E6F3E002C005900D921D
:10005000A232B107D9F7DED082C1D2CF439A0000D5
:1000600043980895A1E0B0E0E7E3F0E051C16623D2
:1000700011F0459A01C0459844983A9A399A259AC0
:10008000249A2C982D984198429887FD2C9A86FDA9
:100090002D9A85FD419A84FD429A8983DFDF2C9851
:1000A0002D9841984298898183FD2C9A82FD2D9A42
:1000B00081FD419A80FD429AD1DF429A419A2D9A60
:1000C0002C9A2196E2E040C14598449A3A98399892
:1000D00025982498439A0000329902C080E001C01C
:1000E00080E1319980621D9980641C9980684398F1
:1000F0000000439A000032998160319982601D9915
:1001000084601C99886043980895DEDF87FDFDCFE9
:1001100000C000C0D9DF0895CF93C82FF6DF60E09C
:100120008C2FA0DFCF910895CF93C82FEEDF61E031
:100130008C2F98DFCF910895611102C0805801C0C3
:100140008054EADF0895E1DF90E0089581E0E4DF84
:10015000089582E0E1DF0895CF93C82FD6DFCA303B
:1001600041F4803410F480E401C080E08058D4DF92
:1001700003C061E08C2F76DFCF910895CF93DF939A
:10018000EC018991882311F0E7DFFBCFDF91CF915C
:100190000895CF93DF93FC018491EF01219688238A
:1001A00019F0DADFFE01F8CFDF91CF910895CF93F8
:1001B000C82F3D9A3C9A3B9A3A9A399A259A249AA2
:1001C0008FE99FE00197F1F700C00000419A429A41
:1001D00045DF81EE94E00197F1F700C000003EDFBB
:1001E00095E19A95F1F7000039DF85E18A95F1F7FD
:1001F0000000429833DF95E19A95F1F7000088E21C
:100200008BDF88E089DFA2DF86E086DF8C2F84DF4A
:10021000CF910895A1E4B0E0EFE0F1E079C087E785
:1002200094E7A6E6B0E089839A83AB83BC83FE01A2
:1002300035968DE3DF011D928A95E9F714BE88E1BA
:100240000FB6F89480936000109260000FBE84B1E6
:10025000856084B984E085B98091C0008260809314
:10026000C0008091C20086608093C2008CE090E064
:100270009093C5008093C4008FE099DF80E091E007
:100280007DDF8091C10080618093C10080E090E0BB
:1002900020E030E04091C00047FF26C0289A211599
:1002A000310529F44091C6004235A1F703C0213041
:1002B000310581F72091C600E1E0F0E0EC0FFD1F71
:1002C000E80FF91F208301962091C6008031910527
:1002D00029F02A3019F021E030E0DCCF81E01CDF8A
:1002E000CE0101964BDFD2CF45B1447045B9D2CF94
:1002F0002F923F924F925F926F927F928F929F9236
:10030000AF92BF92CF92DF92EF92FF920F931F9323
:10031000CF93DF93CDB7DEB7CA1BDB0B0FB6F894D4
:10032000DEBF0FBECDBF09942A88398848885F8414
:100330006E847D848C849B84AA84B984C884DF8085
:10034000EE80FD800C811B81AA81B981CE0FD11D69
:100350000FB6F894DEBF0FBECDBFED010895F8943F
:02036000FFCFCD
:1003620031323334353637383930414243444546E9
:100372000A4748494A4B4C4D4F50515253545556D7
:02038200570022
:00000001FF
