:1000000019C02BC02AC029C028C027C026C025C0BF
:1000100024C023C022C021C020C01FC01EC01DC0DC
:100020001CC01BC01AC019C018C017C016C015C00C
:1000300014C013C011241FBECFEFD4E0DEBFCDBF6C
:1000400011E0A0E0B1E0E8E3F5E002C005900D9218
:10005000A636B107D9F7B2D16DC2D2CF439A00000C
:1000600043980895A1E0B0E0E7E3F0E03CC26623E6
:1000700011F0459A01C0459844983A9A399A259AC0
:10008000249A2C982D984198429887FD2C9A86FDA9
:100090002D9A85FD419A84FD429A8983DFDF2C9851
:1000A0002D9841984298898183FD2C9A82FD2D9A42
:1000B00081FD419A80FD429AD1DF429A419A2D9A60
:1000C0002C9A2196E2E02BC24598449A3A983998A6
:1000D00025982498439A0000329902C080E001C01C
:1000E00080E1319980621D9980641C9980684398F1
:1000F0000000439A000032998160319982601D9915
:1001000084601C99886043980895DEDF87FDFDCFE9
:1001100000C000C0D9DF0895CF93C82FF6DF60E09C
:100120008C2FA0DFCF910895CF93C82FEEDF61E031
:100130008C2F98DFCF910895611102C0805801C0C3
:100140008054EADF0895E1DF90E0089581E0E4DF84
:10015000089582E0E1DF0895CF93C82FD6DFCA303B
:1001600041F4803410F480E401C080E08058D4DF92
:1001700003C061E08C2F76DFCF910895CF93DF939A
:10018000EC018991882311F0E7DFFBCFDF91CF915C
:100190000895CF93DF93FC018491EF01219688238A
:1001A00019F0DADFFE01F8CFDF91CF910895CF93F8
:1001B000C82F3D9A3C9A3B9A3A9A399A259A249AA2
:1001C0008FE99FE00197F1F700C00000419A429A41
:1001D00045DF81EE94E00197F1F700C000003EDFBB
:1001E00095E19A95F1F7000039DF85E18A95F1F7FD
:1001F0000000429833DF95E19A95F1F7000088E21C
:100200008BDF88E089DFA2DF86E086DF8C2F84DF4A
:10021000CF910895A2E4B0E0EFE0F1E060C121E207
:10022000E0E0F1E0DE01929601900D922A95E1F76F
:1002300021E2E2E2F1E0DE01119601900D922A95B1
:10024000E1F7FC0120E030E041914C3229F02F5FD2
:100250003F4F21343105C1F72F5F3F4FDE01139629
:1002600000E010E0A9014F5F5F4F21343105B4F485
:10027000280F391FF90120812C3281F00730110538
:100280000CF42C930F5F1F4F9A011196EBCFFC01DA
:10029000E40FF51F40814C3239F0A9019A012F5F1C
:1002A0003F4F413451059CF3FE01B79640E050E0CA
:1002B0000CC01C911C3279F04B3051050CF41083AA
:1002C0004F5F5F4F2F5F3F4F3196DC01A20FB31F8F
:1002D0002134310574F311964C9149AB2D5F3F4F9A
:1002E000FE01F89640E050E00CC01C911C3279F001
:1002F0004B3051050CF410834F5F5F4F2F5F3F4F22
:100300003196DC01A20FB31F2134310574F311962D
:100310004C9123964FAF23972D5F3F4FFE017A9666
:1003200008C0DC01A20FB31F2C912C3281F0219365
:100330009A01A9014F5F5F4F2134310594F307C043
:10034000FC01E40FF51F40814C3239F0A9019A01FC
:100350002F5F3F4F413451059CF3FE013C9609C08D
:10036000DC01A20FB31F4C914C3231F041932F5F4F
:100370003F4F21343105A4F38E010E5D1F4F81E004
:10038000672B61F0C9DECE0101967C01F7018191F6
:100390007F01E2DEE016F106C9F70CC0BDDE780190
:1003A000F1E2EF0EF11CF80181918F01D5DE0E15FF
:1003B0001F05C9F7CE5BDF4FE6E0ADC0A1E4B0E0BA
:1003C000E3EEF1E08FC087E794E7A6E6B0E089832B
:1003D0009A83AB83BC83FE0135968DE3DF011D92CA
:1003E0008A95E9F714BE88E10FB6F894809360000F
:1003F000109260000FBE84B1856084B9279884E0B4
:1004000085B953988091C00082608093C00080912C
:10041000C20086608093C2008CE090E09093C5009B
:100420008093C4008091C10080618093C1008FE0FF
:10043000BEDE84E491E0A2DE61E070E080E090E066
:1004400020E030E014E04091C00047FF24C0289A2B
:100450002115310539F44091C6004983423509F52B
:1004600001961DC02091C600E1E0F0E0EC0FFD1FF9
:10047000E80FF91F208301962091C6008134910571
:1004800011F02A3061F4CE010196C4DE80E090E0E4
:1004900020E030E006C045B1447045B902C021E01B
:1004A00030E043B169B163FB662760F970E047FF54
:1004B000CACF45B1412745B9E3E2F4EF3197F1F7EF
:1004C00000C00000C0CF2F923F924F925F926F9278
:1004D0007F928F929F92AF92BF92CF92DF92EF92D4
:1004E000FF920F931F93CF93DF93CDB7DEB7CA1B55
:1004F000DB0B0FB6F894DEBF0FBECDBF09942A8880
:10050000398848885F846E847D848C849B84AA8427
:10051000B984C884DF80EE80FD800C811B81AA81B4
:10052000B981CE0FD11D0FB6F894DEBF0FBECDBF7F
:08053000ED010895F894FFCFDE
:100538004C41543A20202020202020202020202018
:100548000A4C4F4E3A202020202020202020202016
:100558002000543A20202020202020443A20202027
:100568002020200A53706565643A20202020204B03
:100578006E7473003132333435363738393041428E
:10058800434445460A4748494A4B4C4D4F505152FF
:06059800535455565700B4
:00000001FF
