:1000000019C02BC02AC029C028C027C026C025C0BF
:1000100024C023C022C021C020C01FC01EC01DC0DC
:100020001CC01BC01AC019C018C017C016C015C00C
:1000300014C013C011241FBECFEFD4E0DEBFCDBF6C
:1000400011E0A0E0B1E0EAEDF2E002C005900D920F
:10005000A232B107D9F7BED03EC1D2CF5F9A00001D
:100060005F980895A1E0B0E0E7E3F0E00CC16623FB
:1000700011F05D9A01C05D985E9897B19F6097B945
:1000800018B1107F982F92959F70912B98B9898302
:10009000E5DF89818F70812B88B9E0DF1F6018B997
:1000A0002196E3E00CC15D985E9A87B1807F87B9A5
:1000B0005F9A000086B15F9800005F9A000096B1D9
:1000C0009F708295807F5F98892B0895ECDF87FD74
:1000D000FDCF00C000C0E7DF0895CF93C82FF6DF43
:1000E00060E08C2FBFDFCF910895CF93C82FEEDF54
:1000F00061E08C2FB7DFCF910895611102C0805865
:1001000001C08054EADF0895E1DF90E0089581E0C6
:10011000E4DF089582E0E1DF0895CF93C82FD6DFB2
:10012000CA3041F4803410F480E401C080E080588B
:10013000D4DF03C061E08C2F95DFCF910895CF937A
:10014000DF93EC018991882311F0E7DFFBCFDF918A
:10015000CF910895CF93DF93FC018491EF01219615
:10016000882319F0DADFFE01F8CFDF91CF910895EF
:10017000CF93C82F97B19F6097B9559A569A579ABF
:100180008FE99FE00197F1F700C00000419A409A83
:1001900065DF81EE94E00197F1F700C000005EDFBB
:1001A00095E19A95F1F7000059DF85E18A95F1F71D
:1001B0000000409853DF95E19A95F1F7000088E23E
:1001C0008CDF88E08ADFA3DF86E087DF8C2F85DF86
:1001D000CF91089514BE88E10FB6F8948093600023
:1001E000109260000FBE209A8091C00082608093C0
:1001F000C0008091C20086608093C2008CE090E0D5
:100200009093C5008093C4008091C1008061809369
:10021000C1008FE0ADDF80E091E091DFC0E0D0E091
:1002200020E030E001E08091C00087FF1BC005B9ED
:100230001091C600123531F02130310519F020E05F
:1002400030E0F1CF812F69DF219621E0C032D10566
:1002500009F020E081E01A3009F080E0282B202707
:1002600030E0E1CF15B8DFCF2F923F924F925F92EF
:100270006F927F928F929F92AF92BF92CF92DF92B6
:10028000EF92FF920F931F93CF93DF93CDB7DEB71B
:10029000CA1BDB0B0FB6F894DEBF0FBECDBF0994AF
:1002A0002A88398848885F846E847D848C849B8406
:1002B000AA84B984C884DF80EE80FD800C811B8114
:1002C000AA81B981CE0FD11D0FB6F894DEBF0FBE43
:0A02D000CDBFED010895F894FFCFB3
:1002DA003132333435363738393041424344454672
:1002EA000A4748494A4B4C4D4F5051525354555660
:0202FA00000002
:00000001FF
