:1000000019C02BC02AC029C028C027C026C025C0BF
:1000100024C023C022C021C020C01FC01EC01DC0DC
:100020001CC01BC01AC019C018C017C016C015C00C
:1000300014C013C011241FBECFEFD4E0DEBFCDBF6C
:1000400011E0A0E0B1E0ECE4F4E002C005900D9214
:10005000A232B107D9F73AD1F7C1D2CF439A000003
:1000600043980895A1E0B0E0E7E3F0E0BBC1662368
:1000700011F0459A01C0459844983A9A399A259AC0
:10008000249A2C982D984198429887FD2C9A86FDA9
:100090002D9A85FD419A84FD429A8983DFDF2C9851
:1000A0002D9841984298898183FD2C9A82FD2D9A42
:1000B00081FD419A80FD429AD1DF429A419A2D9A60
:1000C0002C9A2196E2E0AAC14598449A3A98399828
:1000D00025982498439A0000329902C080E001C01C
:1000E00080E1319980621D9980641C9980684398F1
:1000F0000000439A000032998160319982601D9915
:1001000084601C99886043980895DEDF87FDFDCFE9
:1001100000C000C0D9DF0895CF93C82FF6DF60E09C
:100120008C2FA0DFCF910895CF93C82FEEDF61E031
:100130008C2F98DFCF910895611102C0805801C0C3
:100140008054EADF0895E1DF90E0089581E0E4DF84
:10015000089582E0E1DF0895CF93C82FD6DFCA303B
:1001600041F4803410F480E401C080E08058D4DF92
:1001700003C061E08C2F76DFCF910895CF93DF939A
:10018000EC018991882311F0E7DFFBCFDF91CF915C
:100190000895CF93DF93FC018491EF01219688238A
:1001A00019F0DADFFE01F8CFDF91CF910895CF93F8
:1001B000C82F3D9A3C9A3B9A3A9A399A259A249AA2
:1001C0008FE99FE00197F1F700C00000419A429A41
:1001D00045DF81EE94E00197F1F700C000003EDFBB
:1001E00095E19A95F1F7000039DF85E18A95F1F7FD
:1001F0000000429833DF95E19A95F1F7000088E21C
:100200008BDF88E089DFA2DF86E086DF8C2F84DF4A
:10021000CF910895A0E0B0E0EFE0F1E0D5C05B0140
:100220004A0129016CE270E004D13C016CE270E00B
:100230000196FFD0EC01DC011D92CD01F30121817B
:10024000D5012C936CE270E0F4D05C01FC011192BA
:10025000CF012981D4012C936CE270E0EAD06CE2EA
:1002600070E00196E6D0EC01FC011192CF01D501BE
:1002700011962C91F20120836CE270E0DAD06CE2EE
:1002800070E00196D6D05C01FC0111928981D80101
:100290008C936CE270E0CF01CCD0FC011192CF01C5
:1002A000D50111962C91F70120836CE270E0C1D04A
:1002B000EC016CE270E00196BCD0DC011C928981FB
:1002C000F6018083CDB7DEB7E0E19AC0A1E4B0E0EB
:1002D000EBE6F1E086C087E794E7A6E6B0E0898325
:1002E0009A83AB83BC83FE0135968DE3DF011D92BB
:1002F0008A95E9F714BE88E10FB6F8948093600000
:10030000109260000FBE84B1856084B9279884E0A4
:1003100085B953988091C00082608093C00080911D
:10032000C20086608093C2008CE090E09093C5008C
:100330008093C4008091C10080618093C1008FE0F0
:1003400036DF80E091E01ADF80E090E020E030E0EE
:1003500014E04091C00047FF27C0289A21153105BD
:1003600029F44091C600423529F503C021303105FA
:1003700009F52091C600E1E0F0E0EC0FFD1FE80F69
:10038000F91F208301962091C6008031910511F05C
:100390002A3071F481E0C0DECE010196EFDE80E00C
:1003A00090E020E030E006C045B1447045B902C09D
:1003B00021E030E043B159B147FFCBCF45B14127F0
:1003C00045B9C7CF2F923F924F925F926F927F9223
:1003D0008F929F92AF92BF92CF92DF92EF92FF9255
:1003E0000F931F93CF93DF93CDB7DEB7CA1BDB0B01
:1003F0000FB6F894DEBF0FBECDBF09942A883988A6
:1004000048885F846E847D848C849B84AA84B984AC
:10041000C884DF80EE80FD800C811B81AA81B981B8
:10042000CE0FD11D0FB6F894DEBF0FBECDBFED01CC
:100430000895FC018191861721F08823D9F7992727
:0C04400008953197CF010895F894FFCF84
:10044C0031323334353637383930414243444546FE
:10045C000A4748494A4B4C4D4F50515253545556EC
:02046C00570037
:00000001FF
